:100000000C9476000C9493000C9493000C94930041
:100010000C9493000C9493000C9493000C94930014
:100020000C9493000C9493000C9493000C94930004
:100030000C9493000C9493000C9493000C949300F4
:100040000C9493000C9449010C9493000C941808A0
:100050000C9493000C9493000C9493000C949300D4
:100060000C9493000C9493000C9493000C949300C4
:10007000BB02CD02D602E802FA02040315032703ED
:1000800038034A035C036F03AC03BE03C803DA03FF
:10009000EC03F503060418042B043D044F0460042C
:1000A0009D04A704AE04B804BF04C904D004DA0454
:1000B000E004EA04F104FB0402053D0547054E0592
:1000C00058055F05690570057A0580058A05910563
:1000D0009B05A205DE05E805EF05F90500060A0601
:1000E00011061B0622062C0632063C0611241FBEF2
:1000F000CFEFD4E0DEBFCDBF11E0A0E0B1E0E4E09F
:10010000F1E102C005900D92A038B107D9F721E0C6
:10011000A0E8B1E001C01D92A23CB207E1F70E9445
:1001200088060C9480080C940000982F9F70909380
:10013000830182958F7080939D019BB3907F9093F4
:100140008001982B9BBBDD98DC9A8FEC97E00197A0
:10015000F1F700C00000DC988FEC97E00197F1F711
:1001600000C000008BB3807F809380019091830159
:10017000892B8BBBDD98DC9A8FEC97E00197F1F728
:1001800000C00000DC988FEC97E00197F1F700C009
:10019000000008958FE38ABB88E30E94950082E007
:1001A0000E94950088E20E94950086E00E949500DA
:1001B0008CE00E94950081E00E9495000895CF9305
:1001C000C62F0E9495008FEC97E00197F1F700C0D1
:1001D00000008C2F8F7080938301C295CF70C093E5
:1001E0009D018BB3807F80938001C82BCBBBDD9AB0
:1001F000DC9A8FEC97E00197F1F700C00000DC98E3
:100200008FEC97E00197F1F700C000008BB3807F7F
:100210008093800190918301892B8BBBDD9ADC9ABE
:100220008FEC97E00197F1F700C00000DC98DD98B3
:100230008FEC97E00197F1F700C00000CF9108958F
:10024000EF92FF920F931F93CF93DF93E82E8B01D2
:10025000EA01209789F020E030E0F12CF801E20F6C
:10026000F31F60818F2D8E0D0E94DF00F3942F2DE0
:1002700030E02C173D0790F3DF91CF911F910F9144
:10028000FF90EF90089582E083BF9DE992BF89BF00
:1002900008951F920F920FB60F9211242F933F9340
:1002A0008F939F938DE982BF2091990130E08091D7
:1002B0009E0190919F018217930710F4C09A01C08C
:1002C000C0982091A20130E080919E0190919F0101
:1002D0008217930710F4C19A01C0C1982091880138
:1002E00030E080919E0190919F018217930710F456
:1002F000C29A01C0C29820918D0130E080919E0188
:1003000090919F018217930710F4C39A01C0C3987C
:100310002091810130E080919E0190919F01821790
:10032000930710F4C49A01C0C4982091890130E069
:1003300080919E0190919F018217930710F4C59AB6
:1003400001C0C5982091A10130E080919E0190915B
:100350009F018217930710F4C69A01C0C698209196
:100360008A0130E080919E0190919F01821793074E
:1003700010F4C79A01C0C7982091A00130E0809185
:100380009E0190919F018217930710F4929A01C0E9
:1003900092982091870130E080919E0190919F0179
:1003A0008217930710F4939A01C0939820919201B9
:1003B00030E080919E0190919F018217930710F485
:1003C000949A01C094982091A70130E080919E01F9
:1003D00090919F018217930710F4959A01C0959808
:1003E0002091910130E080919E0190919F018217B0
:1003F000930710F4969A01C096982091A30130E0DB
:1004000080919E0190919F018217930710F4979A13
:1004100001C097982091C00130E080919E01909199
:100420009F018217930710F4A89A01C0A898209101
:100430009A0130E080919E0190919F01821793076D
:1004400010F4A99A01C0A9982091A40130E08091EC
:100450009E0190919F018217930710F4AA9A01C000
:10046000AA982091820130E080919E0190919F0195
:100470008217930710F4AB9A01C0AB9880919E014C
:1004800090919F01019690939F0180939E012091EE
:100490009501309196012F5F3F4F30939601209345
:1004A0009501893C910520F010929F0110929E01C8
:1004B0009F918F913F912F910F900FBE0F901F90A2
:1004C00018959C01899A8FEF82BBC901A0E0B0E02A
:1004D000880F991FAA1FBB1F880F991FAA1FBB1F38
:1004E0009C01AD01220F331F441F551F220F331FE4
:1004F000441F551F60E072E18AE790E00E945808AF
:10050000822F90E0019790BD215029B980E88BB9E6
:1005100088E08AB986E880BD08955D9BFECF8CB9DE
:1005200008950F931F93CF93DF93062F662349F00F
:10053000C82FD92F10E089910E948D021F5F1013E0
:10054000FACFDF91CF911F910F910895882331F059
:10055000813031F48AB180698AB9089557985498E6
:10056000089501978C30910508F0CAC0885C9F4FB0
:10057000FC010C947A088FE080938D0190E19093B8
:1005800081019DE0909387019AE09093920180937E
:100590009A0183E18093A401089583E18093A001EF
:1005A0008FE0809388018093C00108958CE0809350
:1005B0008D019FE09093810191E190938701809359
:1005C000920183E180939A0186E18093A4010895CA
:1005D0008BE08093990180E18093A2019EE090934B
:1005E000A1019AE090938A018093910182E1809326
:1005F000A301089582E1809389018FE080938201B5
:100600008BE08093A701089588E0809399019EE094
:100610009093A2019BE09093A10180938A0184E1D1
:10062000809391018093A30108958FE080938D01C1
:1006300090E1909381019DE0909387019AE09093DF
:10064000920180939A0183E18093A401089583E14C
:100650008093A0018FE0809388018093C0018EE099
:100660008093890192E1909382018093A70108957C
:100670008CE080938D019FE09093810191E19093B4
:1006800087018093920183E180939A0186E18093B0
:10069000A40108958BE08093990180E18093A201E9
:1006A0009EE09093A1019AE090938A01809391013A
:1006B00082E18093A301089581E18093A0018CE001
:1006C0008093880183E18093C00182E18093890156
:1006D0008FE0809382018BE08093A701089588E0EA
:1006E000809399019EE09093A2019BE09093A101D9
:1006F00080938A0184E1809391018093A3010895FE
:1007000098E0909399018EE08093A2018CE0809311
:100710008D012FE0209381012BE02093A101909384
:100720008A0191E1909387018093920184E1809303
:1007300091018093A30183E180939A0186E18093E4
:10074000A401089501978C30910508F0CAC08C5B14
:100750009F4FFC010C947A088FE080938D0190E10B
:10076000909381019DE0909387019AE0909392018C
:1007700080939A0183E18093A401089581E180939D
:10078000A0018CE08093880183E18093C0010895EB
:100790008CE080938D019FE09093810191E1909393
:1007A00087018093920183E180939A0186E180938F
:1007B000A40108958BE08093990180E18093A201C8
:1007C0009EE09093A1019AE090938A018093910119
:1007D00082E18093A30108958EE08093890192E1E4
:1007E000909382018093A701089588E080939901F6
:1007F0009EE09093A2019BE09093A10180938A01D7
:1008000084E1809391018093A30108958FE0809308
:100810008D0190E1909381019DE0909387019AE092
:100820009093920180939A0183E18093A4010895AB
:1008300081E18093A0018CE08093880183E1809323
:10084000C00182E1809389018FE0809382018BE077
:100850008093A70108958CE080938D019FE0909391
:10086000810191E1909387018093920183E18093CC
:100870009A0186E18093A40108958BE08093990109
:1008800080E18093A2019EE09093A1019AE0909371
:100890008A018093910182E18093A301089583E10D
:1008A0008093A0018FE0809388018093C0018EE047
:1008B0008093890192E1909382018093A70108952A
:1008C00088E0809399019EE09093A2019BE0909331
:1008D000A10180938A0184E1809391018093A30117
:1008E000089598E0909399018EE08093A2018CE0A6
:1008F00080938D012FE0209381012BE02093A101B3
:1009000090938A0191E1909387018093920184E111
:10091000809391018093A30183E180939A0186E102
:100920008093A401089501978D30910508F079C056
:10093000805B9F4FFC010C947A088EE08093A101AC
:100940008AE080938A018CE08093A00108958BE077
:100950008093A10188E080938A0108958FE08093BD
:100960008D0180E1809381018CE08093890108955D
:100970008CE080938D018FE08093810108958FE05A
:1009800080939A0183E18093A4018BE0809382019C
:10099000089583E180939A0186E18093A4010895EC
:1009A00080E18093910182E18093A3018DE08093A7
:1009B000C001089584E1809391018093A30108957B
:1009C0008BE08093990180E18093A2018CE0809379
:1009D0008801089588E0809399018EE08093A201B8
:1009E00008958DE0809387018AE0809392018BE0E7
:1009F0008093A701089581E1809387018CE0809323
:100A00009201089583E18093A00192E1909389017E
:100A100080938801909382018093C0018093A70105
:100A2000089588E0809399019EE09093A2019BE055
:100A30009093A10180938A0184E180939101809336
:100A4000A3018CE080938D019FE09093810191E15F
:100A5000909387018093920183E180939A0186E1CC
:100A60008093A401089501978D30910508F07AC014
:100A7000835A9F4FFC010C947A088EE08093A10169
:100A80008AE080938A0183E18093A00108958BE03E
:100A90008093A10188E080938A0108958FE080937C
:100AA0008D0180E18093810182E180938901089525
:100AB0008CE080938D018FE08093810108958FE019
:100AC00080939A0183E18093A40182E18093820163
:100AD000089583E180939A0186E18093A4010895AB
:100AE00080E18093910182E18093A30183E180936F
:100AF000C001089584E1809391018093A30108953A
:100B00008BE08093990180E18093A20183E180933F
:100B10008801089588E0809399018EE08093A20176
:100B200008958DE0809387018AE08093920183E1AC
:100B30008093A701089581E1809387018CE08093E1
:100B4000920108958CE08093A001809389018093A5
:100B500088018BE0809382019DE09093C001809397
:100B6000A701089588E0809399019EE09093A201E7
:100B70009BE09093A10180938A0184E1809391018D
:100B80008093A3018CE080938D019FE0909381017D
:100B900091E1909387018093920183E180939A0180
:100BA00086E18093A401089501978C30910508F0A7
:100BB0006AC086599F4FFC010C947A088BE08093A1
:100BC000990180E18093A2018CE0809388010895CF
:100BD00088E0809399018EE08093A20108958FE0D0
:100BE00080938D0180E1809381018EE08093890163
:100BF00008958CE080938D018FE0809381010895AA
:100C00008EE08093A1018AE080938A0183E1809342
:100C1000A00108958BE08093A10188E080938A0170
:100C200008958DE0809387018AE0809392018BE0A4
:100C30008093A701089581E1809387018CE08093E0
:100C40009201089580E18093910182E18093A30154
:100C50008FE08093C001089584E180939101809397
:100C6000A30108958FE080939A0183E18093A4010A
:100C700082E180938201089583E180939A0186E165
:100C80008093A401089588E0809399019EE0909359
:100C9000A2019BE09093A10180938A0184E180935B
:100CA00091018093A3018CE080938D019FE090934C
:100CB000810191E1909387018093920183E1809378
:100CC0009A0186E18093A40108958FEF87BB88BBCA
:100CD0009FE094BB85BB9EEF91BB82BBF8940E94C2
:100CE000CA000E94430180E895E20E94610268E028
:100CF00081E091E00E94910281E00E94A60240E121
:100D000050E06AE071E080E80E9420017894089544
:100D10000E946506CEEAD1E011E007E09C9B12C07C
:100D20008091A80181111FC063E08BE191E00E94D6
:100D3000910266E480EC0E94DF001093A8011092FB
:100D4000860111C08091860181110DC063E08FE1A1
:100D500091E00E94910260E280EC0E94DF0010921C
:100D6000A801109386019D9912C08091BF01811145
:100D70001FC063E083E291E00E94910262E482EC92
:100D80000E94DF001093BF011092C10111C0809139
:100D9000C10181110DC063E087E291E00E949102E0
:100DA00060E282EC0E94DF001092BF011093C1014B
:100DB00020918B0130918C012130310509F07FC0E9
:100DC00010928C0110928B0198819133B1F440E123
:100DD00050E06BE271E080EC0E94200110939001E2
:100DE0001092A501109294011092A6011092000198
:100DF0001092A9011092AC015FC09233B1F440E1AE
:100E000050E06CE371E080EC0E94200110929001B0
:100E10001093A501109294011092A6011092000166
:100E20001092A9011092AC0147C09333B1F440E194
:100E300050E06DE471E080EC0E942001109290017E
:100E40001092A501109394011092A6011092000136
:100E50001092A9011092AC012FC09433B1F440E17B
:100E600050E06EE571E080EC0E942001109290014C
:100E70001092A501109294011093A6011092000106
:100E80001092A9011092AC0117C09533A9F440E16A
:100E900050E06FE671E080EC0E942001109290011A
:100EA0001092A501109294011092A60110930001D6
:100EB0001092A9011092AC01812F0E94A6022091EC
:100EC000950130919601293B3B4008F427CF809152
:100ED00090018130D1F48091A90190E00E94B1028B
:100EE0008091A9018F5F8D3018F48093A9019BC078
:100EF0000093A90120918E0130918F012F5F3F4F08
:100F000030938F0120938E018EC0809194018130A7
:100F100081F58091AC018430E0F48091A90190E0EA
:100F20000E9433058091A9018F5F8E3018F4809361
:100F3000A90107C01093A9018091AC018F5F809334
:100F4000AC018091AC01843009F06DC01092A90110
:100F50006AC08091A90190E00E94B1028091A9012C
:100F60008F5F8D3018F48093A9015DC00093A901B3
:100F70005AC08091A501813081F48091A90190E04F
:100F80000E94A2038091A9018F5F8D3018F4809395
:100F9000A90149C00093A90146C08091A6018130F2
:100FA00079F58091AC018430D8F48091A90190E06A
:100FB0000E9493048091A9018F5F8E3018F4809372
:100FC000A90107C01093A9018091AC018F5F8093A4
:100FD000AC018091AC01843031F51092A90123C09D
:100FE0008091A90190E00E94B1028091A9018F5FD8
:100FF0008D3018F48093A90116C00093A90113C085
:1010000080910001813079F48091A90190E00E94E3
:10101000D4058091A9018F5F813118F48093A901D3
:1010200002C01092A901109296011092950176CEFD
:101030001F920F920FB60F9211242F933F934F934D
:101040005F936F937F938F939F93AF93BF93EF9330
:10105000FF93809193019CB1E82FF0E0E355FE4FA0
:1010600090839091AD019A3219F48F5F8093930130
:1010700080919301823058F01092930181E090E0CA
:1010800090938C0180938B0180E00E94A602FF91D7
:10109000EF91BF91AF919F918F917F916F915F91F0
:1010A0004F913F912F910F900FBE0F901F90189569
:1010B000A1E21A2EAA1BBB1BFD010DC0AA1FBB1F5C
:1010C000EE1FFF1FA217B307E407F50720F0A21BCE
:1010D000B30BE40BF50B661F771F881F991F1A943B
:1010E00069F760957095809590959B01AC01BD0165
:1010F000CF010895EE0FFF1F0590F491E02D0994A4
:04110000F894FFCF91
:1011040001574F524B494E470D0020484558415016
:101114004F4420524F424F542020002A310D002AC0
:10112400320D002A330D002A340D002020202046E1
:101134004F525741524420202020200020202020BC
:10114400524556455253452020202020002020207F
:10115400202020204C454654202020202000202000
:1011640020202020205249474854202020200020BD
:10117400202020202053544F5020202020202000C5
:00000001FF
